:020000040000FA
:100000007029002045030000590300005B03000035
:100010005D0300005F0300006103000000000000BA
:10002000000000000000000000000000630300006A
:100030006503000000000000670300006903000082
:100040006B0300006B0300006B0300006B030000F8
:100050006B0300006B0300006B0300006B030000E8
:100060006B0300006B0300006B0300006B030000D8
:100070006B0300006B0300006B0300006B030000C8
:100080006B0300006B0300006B0300006B030000B8
:100090006B0300006B0300006B0300006B030000A8
:1000A0006B0300006B0300006B0300006B03000098
:1000B0006B0300006B030000950900006B03000058
:1000C0006B0300006B0300006B0300006B03000078
:1000D0006B0300006B0300006B0300006B03000068
:1000E0006B0300006B0300006B0300006B03000058
:1000F0006B0300006B0300006B0300006B03000048
:100100006B0300006B0300006B0300006B03000037
:100110006B0300006B0300006B0300006B03000027
:100120006B0300006B0300006B0300006B03000017
:100130006B0300006B0300006B0300006B03000007
:1001400000000000000000000000000000000000AF
:100150006B0300006B0300006B0300006B030000E7
:10016000000000000000000000000000000000008F
:10017000000000000000000000000000000000007F
:10018000000000000000000000000000000000006F
:10019000000000000000000000000000000000005F
:1001A000000000000000000000000000000000004F
:1001B0006B0300006B0300006B0300006B03000087
:1001C0006B0300006B0300006B0300006B03000077
:1001D0006B0300006B0300006B0300006B03000067
:1001E0006B0300006B0300006B0300006B03000057
:1001F0006B0300006B0300006B0300006B03000047
:100200006B0300006B0300006B03000000000000A4
:100210006B0300006B0300006B0300006B03000026
:100220006B0300006B0300006B0300006B03000016
:100230006B0300006B0300006B0300006B03000006
:100240006B0300006B0300006B0300006B030000F6
:100250006B0300006B0300006B0300006B030000E6
:100260006B0300006B0300006B03000000F002F85A
:1002700000F041F80AA090E8000C82448344AAF1FF
:100280000107DA4501D100F036F8AFF2090EBAE8FD
:100290000F0013F0010F18BFFB1A43F001031847BA
:1002A0003019000050190000103A24BF78C878C1F6
:1002B000FAD8520724BF30C830C144BF04680C606C
:1002C000704700000023002400250026103A28BFB4
:1002D00078C1FBD8520728BF30C148BF0B607047B8
:1002E000732900F0BA81002070471FB501F0FAF9B8
:1002F0001FBD10B510BD00F0F5F91146FFF7F5FF71
:1003000001F0CAF900F013FA03B4FFF7F2FF03BCDF
:1003100000F01AFA0138FDD170470000EFF31080A9
:1003200072B67047EFF310807047EFF3108062B63B
:10033000704730BF704780F311887047EFF311802A
:10034000704700004EF68850CEF20000016841F47C
:1003500070010160FFF78ABFFEE7FEE7FEE7FEE7F8
:10036000FEE7FEE7FEE7FEE7FEE7FEE772B6704750
:1003700062B67047EFF3108072B6704780F3108852
:10038000704730BF704702480249014A024B70472C
:100390007007002070290020700700200FB41CB5E2
:1003A000074B06AA7B4469460090059800F02BF99C
:1003B0000020694600F03AF91CBC5DF814FB00000F
:1003C000850200002DE9F0410E460446002020621F
:1003D0002046E168884730B3252805D0D4E90121BB
:1003E0009047206A401CF2E7E168204600278847D2
:1003F000050018D0A5F14100192802D820354FF486
:1004000000673246294620462760FFF769FF40B162
:10041000012804D0F61D26F007060836D8E7361D59
:10042000D6E72846DAE7206ABDE8F08170B50C46C9
:100430000546012A05D02878800600D5EA69002300
:1004400002E0012305E05B1C934202D2E05C00283D
:10045000F9D1A869E618C01AA861286A1844286268
:100460002846AFF3008004E0D5E9012114F8010B20
:100470009047B442F8D32846AFF3008070BD000027
:10048000014A00F0EFB800002800002030B5054612
:100490000B462A4613F8014B12F8010B08B1A04293
:1004A000F8D01CB1002802D06D1CF1E7284630BD01
:1004B00040EA0103024630B59B0710D14FF00134EA
:1004C00000E008C208C91D1B9D4315EAC41FF8D0EF
:1004D00013F0FF0102F8011B0DD01B0AF8E711F819
:1004E000013B002B02F8013B05D011F8013B002B2A
:1004F00002F8013BF3D130BD40EA010370B59B0720
:100500002ED14FF00136042A2AD308C810C99D1BEA
:100510009D43121F15EAC61517D0D8B2E1B2401A92
:1005200050EA056110D198B2A1B2401A50EA0541D3
:100530000AD123F07F4024F07F41401A50EA052180
:1005400002D1180EA0EB146070BDA342DBD018BA24
:1005500021BA884201D9012070BD4FF0FF3070BD33
:100560000AB9002070BD10F8013B11F8014B63B1CE
:10057000A3420AD1521E08D010F8013B11F8014BDA
:100580001BB1A34201D1521EEDD1181B70BD421EFA
:1005900012F8013F002BFBD111F8013B002B02F8B0
:1005A000013BF9D170474FF0000200B51346944665
:1005B0009646203922BFA0E80C50A0E80C50B1F1BB
:1005C0002001BFF4F7AF090728BFA0E80C5048BFCF
:1005D0000CC05DF804EB890028BF40F8042B08BF6D
:1005E000704748BF20F8022B11F0804F18BF00F869
:1005F000012B7047704770477047000001694A1C23
:1006000002610878704700B58FB0CDE90131002153
:10061000059105497944CDE9031011466846FFF775
:10062000D1FE0FB000BD0000E5FFFFFF0A6802F831
:10063000010B0A60704710B5436913B1AFF3008036
:1006400001E0FFF7F3FE012010BD127800F1240154
:100650000A7000224A700122EDE711684FF0FF3264
:10066000E9E700002DE9F04115460E46040002D1ED
:100670002C6804B90BA4204600F026F80444207826
:1006800070B127463146384600F00EF80444207811
:1006900010B1002004F8010B38462C60BDE8F08151
:1006A0000027F9E70000000030B503461D781DB1B2
:1006B0000A4603E0AC4201D1181A30BD12F8014BD2
:1006C000002CF7D15B1CF1E730B503461D783DB136
:1006D0000A4612F8014B1CB1AC42FAD15B1CF5E79B
:1006E000181A30BD754600F02BF8AE460500694675
:1006F000534620F00700854618B020B5FFF743FEAB
:10070000BDE820404FF000064FF000074FF0000812
:100710004FF0000B21F00701AC46ACE8C009ACE893
:10072000C009ACE8C009ACE8C0098D46704710B5F7
:100730000446AFF300802046BDE81040FFF7E4BD5B
:10074000004870470C07002001491820ABBEFEE7A7
:10075000260002007047D0F8003412F0010F14BFD9
:100760000B438B43C0F8003412F0020FD0F8202462
:1007700014BF114322EA0101C0F820147047C0F8E9
:100780001C147047D0F8102422EA0101C0F810149C
:100790007047D0F810241143C0F810147047D0F8F7
:1007A000083412F0010F14BF0B438B43C0F8083418
:1007B000D0F8043412F0020F14BF0B438B43C0F87F
:1007C0000434D0F80C3412F0040F14BF194323EA98
:1007D0000101C0F80C14D0F8381512F4803F14BF92
:1007E00041F0010121F00101C0F8381570472DE9F1
:1007F000F00301264FF0000C0325C2F3411706FA5F
:100800000CF40C4211D0D0F8C48F4FEA4C0405FA16
:1008100004F928EA0908C0F8C48FD0F8C48F07FA91
:1008200004F448EA0404C0F8C44F0CF1010C0CF0C5
:10083000FF0CBCF1080FE2D3D0F800C512F0010F95
:1008400014BF4CEA010C2CEA010CC0F800C5D0F82A
:1008500004C512F0020F14BF4CEA010C2CEA010C83
:10086000C0F804C5D0F808C512F0040F14BF4CEA54
:10087000010C2CEA010CC0F808C5D0F818C512F01C
:10088000080F14BF4CEA010C2CEA010CC0F818C583
:1008900012F0100FD0F83C2514BF0A438A43C0F869
:1008A0003C25D0F80C2513F0010F14BF0A438A43EE
:1008B000C0F80C25D0F8102513F0020F14BF0A431E
:1008C0008A43C0F81025D0F8142513F0040F14BF84
:1008D0000A438A43C0F81425D0F81C2513F0080FEA
:1008E00014BF0A438A43C0F81C25D0F8442513F4EA
:1008F000007F14BF0A438A43C0F84425D0F840253E
:1009000013F4407F14BF0A438A43C0F84025D0F84F
:100910002825002B0CBF114322EA0101C0F828153D
:10092000BDE8F003704700000E4AC0F30741D26EE5
:1009300001238B401A420C4A1ABF02EBC1014968DD
:1009400052F83110020AD1F82C354FF00F0C0CFA86
:1009500002FC00F00F0023EA0C0390401843C1F89A
:100960002C05704700E00F407018000050F821007F
:10097000704730B50C4605460222FFF7ECFE2146D3
:100980002846BDE8304008230122FFF730BF40F879
:100990002120704710B500242E2000F053FA0D4896
:1009A00000F075FE11210C48FFF7E0FFC4B21121E1
:1009B0000948FFF7E4FE04F0010008B900F05CFB11
:1009C00004F0100008B900F045FB2E2000F06CFA8E
:1009D00010BD000020A107000050024070B50125A5
:1009E0000024002619A2002119A000F0ABFA27E08C
:1009F000A0211E4800F022FD1DA11C48FFF740FD6C
:100A0000064604EB84011B4A02EB41103146FFF716
:100A10004FFD04EB8400174901EB4012214616A05C
:100A200000F090FA04EB8401124A02EB411002221A
:100A300015A1FFF761FD08B9002501E0601CC4B2F3
:100A40000DB10A2CD4DB601CC0B270BD20000000C8
:100A50003E2053746172746564206D6573736167C1
:100A6000652072656164696E670000006C06002095
:100A70000A0000002C0000203E3E3E204C696E65BE
:100A8000206E723A200000004F4B0000F8B5064679
:100A9000002400253CA00068009000203B4908602D
:100AA0006AE004EB84013A4A02EB411039A1FFF7F6
:100AB000EDFC00283CD004EB8400354901EB4015E7
:100AC0002A46002135A000F03DFA2FA12846FFF765
:100AD000D7FC3649086008460021026834A000F0BF
:100AE00031FA69460020FFF7CBFC304908606946BF
:100AF0000020FFF7C5FC3149086069460020FFF778
:100B0000BFFC2E49086069460020FFF7B9FC2C495C
:100B1000086026480068801C244908600020096895
:100B2000887226490968087225490968087221E017
:100B300005B304EB8400164901EB4010D0B1134813
:100B4000006830B904EB840001EB40100F490860E5
:100B500010E0A01CB0420DDC13A10C480068FFF7A8
:100B600016FD04EB84000A4A02EB401107480068B6
:100B7000FFF70DFD601CC4B2B44292DB0DB900203A
:100B8000F8BD0120FCE700002C0000001000002050
:100B90002C0000202B434D47523A0000456E7665ED
:100BA0006C6F70652069733A20000000140000200B
:100BB00053656E6465722069733A20001800002046
:100BC0001C0000202DE9F041ADF5986D064600208F
:100BD000CDF8BC040027804600243FE0314641A008
:100BE00000F02AFAFFF7FAFE80464046FFF74EFF74
:100BF0000DF2BC4108550846005D58B33C480068FA
:100C00003C490968CDE90010C4EB041101EB8101F6
:100C100003AA02EB810038490B6838490A6838A1F9
:100C2000FFF7BCFB002512E0C5EB051202EB8202C8
:100C300003AB03EB8201C4EB041202EB820203EB71
:100C40008200FFF723FC08B1012702E06D1CA542DA
:100C5000EADB00E004E007B102E0641C032CBDDB2A
:100C600000BF2AA231462AA000F06CF90DF2BC4068
:100C7000005DC8B1C7B121480021026828A000F07A
:100C800061F91D480021026828A000F05BF91948AD
:100C90000021026827A000F055F9154800210268DC
:100CA00026A000F04FF90EE00DF2BC40005D28B91F
:100CB0000EA2002124A000F045F904E013A20021B7
:100CC00025A000F03FF92A48007838B19DF8BC040F
:100CD00020B128A231462AA000F034F90DF5986D14
:100CE000BDE8F08141542B434D47523D00000000C8
:100CF000100000201C00002018000020140000201C
:100D00002573257325732573000000002000000063
:100D10000A0D3E3E3E204D455353414745203A0083
:100D20003E2046524F4D203A000000003E204154E4
:100D3000203A00003E204F4E203A00003E2054450D
:100D40005854203A000000003E204E4F542050528C
:100D50004553454E542100003E20434F554C4420FE
:100D60004E4F54205645524946592120000000005C
:100D7000080000202044454C455445440000000034
:100D80003E3E3E204D455353414745200000000064
:100D900010B5174800F0B0FA164817490860081D4A
:100DA000006840F01100091D08602E2000F04AF88C
:100DB00011211248FFF7E6FC002211210F48FFF72E
:100DC000EEFC002211210D48FFF7C5FC0A23012289
:100DD00011210A48FFF70BFD00212E2000F09EF89C
:100DE00011210648FFF7D5FC2E2000F05DF810BD5C
:100DF000050800F04B434F4C205502400050024084
:100E000010B50C4800F078FA0B480C490860081D32
:100E1000006840F00E00091D086001220E210848FC
:100E2000FFF799FC082366220E210548FFF7DFFC37
:100E300010BD0000050800F04B434F4C2055024008
:100E4000005002401649042804BF086820F480308E
:100E500018D0052804BF086820F4003012D00628F6
:100E600012D00F2815D0102838BF7047103800F066
:100E70001F01012202FA01F142090A4850F822003A
:100E80000160704708607047086820F4802008609F
:100E900070474FF0E020016921F0020101617047C5
:100EA00024ED00E0D01900001649042804BF0868AA
:100EB00040F4803018D0052804BF086840F40030A2
:100EC00012D0062812D00F2815D0102838BF70472E
:100ED000103800F01F01012202FA01F142090A480C
:100EE00050F822000160704708607047086840F4BD
:100EF0008020086070474FF0E020016941F0020156
:100F00000161704724ED00E0BC19000010B5FFF747
:100F10000CFA002818BF012010BD0000084A20F07C
:100F20000303D25813688007C00E4FF0FF0C0CFA71
:100F300000FC23EA0C0301FA00F01843106070472C
:100F40002019000070B506460C461546304600F0E4
:100F50004DFA204600F055FA284600F047FA00F016
:100F60003DFA70BD30B5ADF5017D4FF4007101A8BB
:100F7000FFF719FB00BF24A000F0E0FA0D2000F0FD
:100F8000D3FA00F07FF8642148434FF47A71B0FB44
:100F9000F1F0451E2846FFF7BDF91EA000F0CEFA7D
:100FA0000D2000F0C1FA00F06DF8642148434FF4C1
:100FB0007A71B0FBF1F0451E2846FFF7ABF918A097
:100FC00000F0BCFA0D2000F0AFFA00F05BF86421ED
:100FD00048434FF47A71B0FBF1F0451E2846FFF705
:100FE00099F9002409E0134800F0CEFA01A9085548
:100FF0000520FFF78FF9601C84B2B4F5007FF2DBA7
:101000000DF5017D30BD000041542B434D47463D59
:101010003100000041542B435344483D3000000050
:1010200041542B434E4D493D302C302C302C302C2C
:101030003100000000E0004070B505460C4628462F
:1010400000F07CFA204600F084FA0D2000F06CFAE3
:1010500070BD000010B50648007880F00400044917
:1010600008700846027804210248FFF790FC10BD82
:10107000050000200050024010B50120FFF7A2FD3E
:1010800010BD000070B44B4D2A6E296F11F0004F57
:1010900014BF01F0700002F03000202808BF46485D
:1010A00018D005DC88B1102808BF444812D009E0E8
:1010B000302808BF47F230500CD0702808BF4FF4DA
:1010C000004007D070BC002070477C203C4B00EAF9
:1010D000121018584FF0FF3311F0004F02D011F4E6
:1010E000006F06D001F0004C02F400645CEA040CCE
:1010F00036D1D5F860C1D5F8644104F01F06C4F3B9
:101100000424641C761C16FB04F46400B0FBF4F0A9
:10111000CCF309044443CCF3892C00FB0CF0D5F844
:1011200010C004EB902042F480020CF4704CBCF52B
:10113000804F08BF234B13D009DCBCF5005F08BF0C
:10114000214B0DD0BCF5405F08BF204B08E0BCF53B
:10115000E04F08BF1E4B03D0BCF5104F08BF1D4B1E
:1011600012F4800F21D011F0004F19D011F0804FF0
:1011700009D011F4006F0CD001F0004C02F40062B1
:101180005CEA020205D0C1F3C551491CB0FBF1F085
:101190000BE04000C1F38651491CB0FBF1F004E0C4
:1011A000C2F3C351491CB0FBF1F0834238BF18466B
:1011B00070BC704700E00F4000093D000024F400BF
:1011C000141A0000005A620200B4C40480F0FA024B
:1011D00040787D01002D3101434B30B4196E1A6FF8
:1011E00021F4800141F4006142F4006419661C6737
:1011F00021EA000212F0010F14D060F00102114048
:101200009A159A651966D3F850C0D2021CF4807FF3
:1012100008D1521E04BF30BC7047D3F850C01CF434
:10122000807FF6D021F4FE6100F4FE621143DFF806
:10123000BCC024F0700222F0004200EA0C0C4CEA20
:10124000020200F0080C42EACC0219661A6700F4A8
:10125000005C21F4005122F400524CEA01014CEAF6
:1012600002024FF0400CC3F858C012F0004F08BF04
:1012700019661A6718BF196621F00101DFF870C0FE
:1012800021F0F86100EA0C0C4CEA010122F0FC525A
:1012900000F0FC5C4CEA020210F0804F08BF22F024
:1012A000804209D0DFF84CC022F4800200EA0C0C26
:1012B00041F480014CEA020210F4006F08BF4FF4C1
:1012C00000400AD1D3F868C11CF0010F01D1401EC3
:1012D000F8D121F4006122F4006219661A6730BC6B
:1012E0001020FFF717B8000000E00F40300000802A
:1012F0000100C00700004040C0F307230749C0B207
:10130000194401F07043C1F3130143EA411141EA6A
:10131000800040F0007001220260704700E60F403C
:10132000C0F307220849C0B2114401F07042C1F372
:10133000130142EA411141EA800040F00070006868
:10134000002818BF0120704700EA0F4038B5002080
:1013500000901948FFF7D0FF1848FFF7CDFF184855
:1013600000F071F90120FFF7DFFA40F20140FFF7CA
:10137000DBFA03214FF04020FFF7FBFA0021104871
:1013800000F010F9FFF77EFE044660234FF4E132CF
:1013900021460B4800F020F9094800F06DF9084893
:1013A00000F060F9FFF76EFE04466B46054A2146E1
:1013B000034800F0FAF838BD001800F0000800F00B
:1013C00000C000402000002010B50446214602481D
:1013D00000F0E2F810BD000000C0004010B50D2084
:1013E000FFF7F2FF0A20FFF7EFFF10BD10B504462C
:1013F00003E02078FFF7E8FF641C20780028F8D18C
:1014000010BD70B504460A2C0AD30A20B4FBF0F5CF
:101410002846FFF7F6FF0A20B4FBF0F100FB114469
:1014200004F13001C8B2FFF7CFFF70BD10B502481C
:1014300000F0A4F8C0B210BD00E0004070B5044652
:101440000D46002600BFFFF7F1FF2070641C711CE1
:101450008EB20D2804D00A2802D008B1AE42F2DBC9
:101460000021217070BD000038B500200090254893
:10147000FFF742FF2448FFF73FFF00BF2148FFF777
:101480004FFF0028FAD000BF1F48FFF749FF002890
:10149000FAD01E481E490860081D006840F0C000D0
:1014A000091D08601B4800F0CEF81B48FFF73CFA06
:1014B0001A48FFF739FAC0211948FFF75AFA0021F4
:1014C000144800F06FF8FFF7DDFD044660234FF489
:1014D000E13221460F4800F07FF800210D4800F06E
:1014E000D0F80C4800F0C8F80A4800F0BBF8FFF745
:1014F000C9FD04466B460B4A2146064800F055F8E4
:1015000038BD0000021800F0030800F04B434F4CB8
:101510002075004000E0004001180300011C03009A
:10152000007000402400002010B504462146024807
:1015300000F032F810BD000000E0004010B5044695
:1015400003E02078FFF7F0FF641C20780028F8D132
:1015500010BD70B504460A2C0AD30A20B4FBF0F57E
:101560002846FFF7F6FF0A20B4FBF0F100FB114418
:1015700004F13001C8B2FFF7D7FF70BD816911F0E7
:10158000100FFBD100687047816911F0100F0CBF7C
:1015900000684FF0FF307047826912F0200FFBD1D6
:1015A00001607047C0F8C81F704710B4446AD0F893
:1015B00028C089000CEB841CB1FBFCF11160D0F851
:1015C00030C01CF0200F1CBF49001160C06A00F041
:1015D000EE00186010BC7047D0F818C01CF0080F5F
:1015E000FAD1D0F82CC02CF0100CC0F82CC0D0F8D8
:1015F00030C02CF0010C2CF4407CC0F830C0D0F886
:1016000030C0B1EB021F34BF4CF0200C2CF0200C8A
:10161000C0F830C038BF5208C900B1FBF2F1491C14
:1016200049088A09426201F03F018162C3620021D8
:101630008161C16A41F01001C162016B40F2013267
:10164000114301637047816911F0080FFBD1C16A32
:1016500021F01001C162016B21F0010121F4407100
:1016600001637047C16A41F01001C162016B40F231
:101670000132114301637047C16A41F01001C16238
:101680007047C26A22F086021143C162704700E0CF
:10169000401E0028FCD170470C48FFF79DFDFFF766
:1016A000AFFBFFF775FBFFF751FEFFF7DDFEFFF71E
:1016B00059FCFFF72BFC06A0FFF798FEFFF78EFE04
:1016C00002E00520FFF7E3FFFBE70000400500C153
:1016D00053797374656D20696E697420646F6E65EB
:1016E0002E2E2E004FF04070E1EE100A70470000E1
:1016F0000040004010000000008005401000000085
:101700000050004011000000009005401100000052
:10171000006000401200000000A005401200000020
:10172000007000401300000000B0054013000000EE
:10173000004002401400000000C0054014000000FA
:10174000005002402E00000000D005402E00000096
:10175000006002402F00000000E005402F00000064
:10176000007002403000000000F005403000000032
:1017700000D0034046000000000006404600000084
:10178000001006404700000000200640480000000E
:10179000003006407F00000000400640800000004E
:1017A0000050064084000000006006408C000000ED
:1017B00000400040100000000080054010000000C4
:1017C0000050004011000000009005401100000092
:1017D000006000401200000000A005401200000060
:1017E000007000401300000000B00540130000002E
:1017F000004002401400000000C00540140000003A
:10180000005002402E00000000D005402E000000D5
:10181000006002402F00000000E005402F000000A3
:10182000007002403000000000F005403000000071
:1018300000D00340430000000000064043000000C9
:101840000010064044000000002006404500000053
:1018500000300640580000000040064059000000DB
:10186000005006405C00000000600640640000007C
:1018700000400040008005400050004000900540BE
:101880000060004000A005400070004000B005402E
:101890000040024000C005400050024000D005401A
:1018A0000060024000E005400070024000F005408A
:1018B00000D0034000000640001006400010064023
:1018C0000020064000200640003006400030064060
:1018D00000400640004006400050064000500640D0
:1018E0000060064000600640007006400070064040
:1018F00000800640008006400090064000900640B0
:1019000000070000000600000005000000040000C1
:1019100000030000000200000001000000000000C1
:101920000000000018ED00E01CED00E020ED00E0FC
:1019300000E400E004E400E008E400E00CE400E07F
:1019400010E400E014E400E018E400E01CE400E02F
:1019500020E400E024E400E028E400E02CE400E0DF
:1019600030E400E034E400E038E400E03CE400E08F
:1019700040E400E044E400E048E400E04CE400E03F
:1019800050E400E054E400E058E400E05CE400E0EF
:1019900060E400E064E400E068E400E06CE400E09F
:1019A00070E400E074E400E078E400E07CE400E04F
:1019B00080E400E084E400E088E400E000E100E08E
:1019C00004E100E008E100E00CE100E010E100E0EB
:1019D00080E100E084E100E088E100E08CE100E0EB
:1019E00090E100E000E200E004E200E008E200E054
:1019F0000CE200E010E200E080E200E084E200E0BF
:101A000088E200E08CE200E090E200E000D01213F7
:101A100000389C1C40420F0000201C0080841E00E7
:101A200000802500999E36000040380000093D00E6
:101A300000803E0000004B00404B4C0000204E0058
:101A4000808D5B0000C05D000080700000127A0095
:101A500000007D0080969800001BB7000080BB004E
:101A6000C0E8CE00647ADA000024F4000000FA0036
:101A700080A81201002D310100366E0140787D01F1
:101A800040000000000000003E00080000000000D0
:101A9000A00000000200000034540100000000001B
:101AA0002B7006000000000028000000000000006D
:101AB00027000100000000002000000000000000DE
:101AC00050000000020000001AAC000000000000FE
:101AD000179409000000000016980500000000009F
:101AE0001400000000000000138008000000000047
:101AF000A00000000800000010000000000000002E
:101B00002800000002000000400000000400000067
:101B100060000000000000005D000C0000000000FC
:101B200050000000000000004E0002000000000015
:101B300041AC0100000000003C000000000000007B
:101B40003A800900000000003000000000000000A2
:101B50002800000000000000270001000000000035
:101B60002360060000000000216008000000000063
:101B70001E000000000000001DC004000000000066
:101B800050000000020000001800000000000000EB
:101B900014000000000000006000000004000000CD
:101BA0000024F40030003000005A620291009100DD
:101BB00000879303D200D20000B4C40413011301C0
:101BC00000E1F50554015401000E27079501950128
:101BD000F01B0000000000202C000000A802000004
:101BE0001C1C00002C00002044290000C40200003E
:101BF00000000000010000000100000000000000E3
:101C000000000000000000000000000000000000D4
:0C1C1000000000000000000000000000C8
:0400000500000345AF
:00000001FF
