:020000040000FA
:1000000068020020350300003D0300003F030000AC
:10001000410300004303000045030000000000000E
:100020000000000000000000000000004703000086
:1000300049030000000000004B0300004D030000D6
:100040004F0300005103000053030000550300005C
:1000500057030000590300005B0300005D0300002C
:100060005F030000610300006303000065030000FC
:1000700067030000690300006B0300006D030000CC
:100080006F0300007103000073030000750300009C
:1000900077030000790300007B0300007D0300006C
:1000A0007F0300008103000083030000850300003C
:1000B0008703000089030000ED0400008D030000A9
:1000C0008F030000910300009303000095030000DC
:1000D00097030000990300009B0300009D030000AC
:1000E0009F030000A103000000000000A303000024
:1000F000A5030000A7030000A9030000AB03000054
:10010000AD030000AF030000B1030000B303000023
:100110000000000000000000B5030000B70300006D
:10012000B9030000BB030000BD030000BF030000D3
:10013000C1030000C3030000C5030000C7030000A3
:1001400000000000000000000000000000000000AF
:10015000C9030000CB030000CD030000CF03000063
:10016000000000000000000000000000000000008F
:10017000000000000000000000000000000000007F
:10018000000000000000000000000000000000006F
:10019000000000000000000000000000000000005F
:1001A000000000000000000000000000000000004F
:1001B000D1030000D3030000D5030000D7030000E3
:1001C000D9030000DB030000DD030000DF030000B3
:1001D000E1030000E3030000E5030000E703000083
:1001E000E9030000EB030000ED0300000000000045
:1001F00000000000EF030000F1030000F303000023
:10020000F5030000F70300000000000000000000FC
:10021000F9030000FB030000FD030000FF030000E2
:1002200001040000030400000504000007040000AE
:10023000090400000B0400000D0400000F0400007E
:10024000110400001304000015040000170400004E
:10025000190400001B0400001D0400001F0400001E
:1002600021040000230400002504000000F002F82F
:1002700000F03CF80AA090E8000C82448344AAF104
:100280000107DA4501D100F031F8AFF2090EBAE802
:100290000F0013F0010F18BFFB1A43F001031847BA
:1002A0002810000048100000103A24BF78C878C118
:1002B000FAD8520724BF30C830C144BF04680C606C
:1002C000704700000023002400250026103A28BFB4
:1002D00078C1FBD8520728BF30C148BF0B607047B8
:1002E0001FB500F07BFD1FBD10B510BD00F0AFF8CD
:1002F0001146FFF7F5FF00F03FFD00F0CDF803B425
:10030000FFF7F2FF03BC00F0D5F80000EFF3108018
:1003100072B67047EFF310807047EFF3108062B64B
:10032000704730BF704780F311887047EFF311803A
:10033000704700003F4880473F480047FEE7FEE720
:10034000FEE7FEE7FEE7FEE7FEE7FEE7FEE7FEE785
:10035000FEE7FEE7FEE7FEE7FEE7FEE7FEE7FEE775
:10036000FEE7FEE7FEE7FEE7FEE7FEE7FEE7FEE765
:10037000FEE7FEE7FEE7FEE7FEE7FEE7FEE7FEE755
:10038000FEE7FEE7FEE7FEE7FEE7FEE7FEE7FEE745
:10039000FEE7FEE7FEE7FEE7FEE7FEE7FEE7FEE735
:1003A000FEE7FEE7FEE7FEE7FEE7FEE7FEE7FEE725
:1003B000FEE7FEE7FEE7FEE7FEE7FEE7FEE7FEE715
:1003C000FEE7FEE7FEE7FEE7FEE7FEE7FEE7FEE705
:1003D000FEE7FEE7FEE7FEE7FEE7FEE7FEE7FEE7F5
:1003E000FEE7FEE7FEE7FEE7FEE7FEE7FEE7FEE7E5
:1003F000FEE7FEE7FEE7FEE7FEE7FEE7FEE7FEE7D5
:10040000FEE7FEE7FEE7FEE7FEE7FEE7FEE7FEE7C4
:10041000FEE7FEE7FEE7FEE7FEE7FEE7FEE7FEE7B4
:10042000FEE7FEE7FEE7000004480549034A054BE6
:1004300070470000D90A00006D020000680000202B
:1004400068020020680000207047704770477546BA
:1004500000F02CF8AE4605006946534620F0070030
:10046000854618B020B5FFF7DFFFBDE820404FF00C
:1004700000064FF000074FF000084FF0000B21F08E
:100480000701AC46ACE8C009ACE8C009ACE8C0095B
:10049000ACE8C0098D46704710B50446AFF3008044
:1004A0002046BDE81040FFF72ABF00000048704713
:1004B0000800002001491820ABBEFEE7260002001C
:1004C0007047D0F8003412F0010F14BF0B438B4378
:1004D000C0F8003412F0020FD0F8202414BF1143EA
:1004E00022EA0101C0F820147047000010B5002472
:1004F0002E2000F087F90D4800F039FC11210C483E
:1005000000F012F9C4B21121094800F013F804F008
:10051000010008B900F0F6F904F0100008B900F085
:1005200027FB2E2000F0A0F910BD000020A107003D
:1005300000500240C0F81C14704700F58262D0F8E9
:10054000100488431060704700F58262D0F81004F0
:10055000084310607047D0F8083412F0010F14BF40
:100560000B438B43C0F80834D0F8043412F0020F68
:1005700014BF0B438B43C0F80434D0F80C3412F092
:10058000040F14BF194323EA0101C0F80C14D0F87A
:10059000381512F4803F14BF41F0010121F0010130
:1005A000C0F8381570472DE9F00701274FF0000C0F
:1005B0000326C2F3411800F6C47407FA0CF50D4285
:1005C00010D0D0F8C49F4FEA4C0506FA05FA29EA84
:1005D0000A09C4F80090D4F8009008FA05F549EA31
:1005E000050525600CF1010C0CF0FF0CBCF1080FA7
:1005F000E3D3D0F800C512F0010F14BF4CEA010C90
:100600002CEA010CC0F800C5D0F804C512F0020FA6
:1006100014BF4CEA010C2CEA010CC0F804C5D0F858
:1006200008C512F0040F14BF4CEA010C2CEA010CAF
:10063000C0F808C5D0F818C512F0080F14BF4CEA6E
:10064000010C2CEA010CC0F818C512F0100FD0F8FC
:100650003C2514BF0A438A43C0F83C25D0F80C253A
:1006600013F0010F14BF0A438A43C0F80C25D0F8D9
:10067000102513F0020F14BF0A438A43C0F8102557
:10068000D0F8142513F0040F14BF0A438A43C0F8AE
:100690001425D0F81C2513F0080F14BF0A438A4311
:1006A000C0F81C25D0F8442513F4007F14BF0A437A
:1006B0008A43C0F84425D0F8402513F4407F14BF86
:1006C0000A438A43C0F84025D0F82825002B0CBFE8
:1006D000114322EA0101C0F82815BDE8F007704770
:1006E0000F4AC0F30741D26E01238B401A420D4AD4
:1006F0001ABF02EBC1014A6852F83120C0F307214A
:1007000002F22C53D2F82C254FF00F0C0CFA01FCFE
:1007100000F00F0022EA0C02884010431860704776
:1007200000E00F40680F000050F82100704730B51E
:100730000C4605460222FFF7C4FE21462846BDE8C6
:10074000304008230122FFF72EBF40F821207047D8
:1007500010B5174800F0ACF9164817490860081D95
:10076000006840F01100091D08602E2000F04AF8D2
:1007700011211248FFF7E1FE002211210F48FFF777
:10078000EAFE002211210D48FFF79BFE0A230122F9
:1007900011210A48FFF707FF00212E2000F09EF8E4
:1007A00011210648FFF7D0FE2E2000F05DF810BDA5
:1007B000050800F04B434F4C2055024000500240CA
:1007C00010B50C4800F074F90B480C490860081D7E
:1007D000006840F00E00091D086001220E21084843
:1007E000FFF76FFE082366220E210548FFF7DBFEA8
:1007F00010BD0000050800F04B434F4C205502404F
:10080000005002401649042804BF086820F48030D4
:1008100018D0052804BF086820F4003012D006283C
:1008200012D00F2815D0102838BF7047103800F0AC
:100830001F01012202FA01F142090A4850F8220080
:100840000160704708607047086820F480200860E5
:1008500070474FF0E020016921F00201016170470B
:1008600024ED00E0C81000001649042804BF086801
:1008700040F4803018D0052804BF086840F40030E8
:1008800012D0062812D00F2815D0102838BF704774
:10089000103800F01F01012202FA01F142090A4852
:1008A00050F822000160704708607047086840F403
:1008B0008020086070474FF0E020016941F002019C
:1008C0000161704724ED00E0B410000010B5FFF79F
:1008D00024FD002818BF012010BD0000084A20F0A8
:1008E0000303D25813688007C00E4FF0FF0C0CFAB8
:1008F00000FC23EA0C0301FA00F018431060704773
:100900001810000010B50D490978481CC11700EBFC
:100910005171C910A0EBC101084A1170104600784E
:1009200040000749086007A000F0A1F904480068EA
:1009300000F088F900F074F910BD000005000020F7
:1009400000000020436F6C6F7220636F646520634A
:1009500068616E67656420746F3A200070B44B4D17
:100960002A6E296F11F0004F14BF01F0700002F0E1
:100970003000202808BF464818D005DC88B1102870
:1009800008BF444812D009E0302808BF47F2305071
:100990000CD0702808BF4FF4004007D070BC002076
:1009A00070477C203C4B00EA121018584FF0FF3380
:1009B00011F0004F02D011F4006F06D001F0004C8E
:1009C00002F400645CEA040C36D1D5F860C1D5F8B5
:1009D000644104F01F06761CC4F30424641C16FB57
:1009E00004F46400B0FBF4F0CCF309044443CCF30A
:1009F000892C00FB0CF0D5F810C004EB902042F4D9
:100A000080020CF4704CBCF5804F08BF234B13D010
:100A100009DCBCF5005F08BF214B0DD0BCF5405F81
:100A200008BF204B08E0BCF5E04F08BF1E4B03D0C9
:100A3000BCF5104F08BF1D4B12F4800F21D011F0F0
:100A4000004F19D011F0804F09D011F4006F0CD075
:100A500001F0004C02F400625CEA020205D0C1F32E
:100A6000C551491CB0FBF1F00BE04000C1F38651C9
:100A7000491CB0FBF1F004E0C2F3C351491CB0FBC8
:100A8000F1F0834238BF184670BC704700E00F4059
:100A900000093D000024F4000C110000005A62021D
:100AA00000B4C40480F0FA0240787D01002D3101C9
:100AB000C0F307230749C0B2194401F07043C1F3E2
:100AC000130143EA411141EA800040F00070012225
:100AD0000260704700E60F401B49096841F470014D
:100AE000194A116019491A4A11671A4911661A49B7
:100AF00011661A491167002000E0401CB0F57A7FAA
:100B0000FBD31749124A116616491167002000E00D
:100B1000401CB0F57A7FFBD313490D4A116600BF24
:100B20000B49096D01F040014029F9D10F49084AEC
:100B300011664FF0C0711167002000E0401C42F2C6
:100B400010718842FAD3704788ED00E010288007C2
:100B500000E00F40D13A8E07422D9E01002880010F
:100B6000420D9E0100088001420DDE014205DE01BA
:100B700010B50848007880F001000649087006A00A
:100B800000F075F80348007800F05CF800F048F8D1
:100B900010BD000004000020537461746520636878
:100BA000616E67656420746F3A2000001CB50024F4
:100BB0000020019000901748FFF77AFF1648FFF7D2
:100BC00077FF164800F0B5F840F20140FFF788FDC6
:100BD00002214FF04020FFF7AAFD00210F4800F04E
:100BE00057F8FFF7BBFE044660234FF4E13221467D
:100BF0000A4800F067F8094800F0B4F8074800F028
:100C0000A7F86B4601AA2146044800F044F8641C8A
:100C10001CBD0000001800F0000800F000C00040FB
:100C200010B50D2000F004F80A2000F001F810BD06
:100C300010B504462146024800F024F810BD00001B
:100C400000C0004070B504460A2C0AD30A20B4FB49
:100C5000F0F52846FFF7F6FF0A20B4FBF0F100FBA1
:100C6000114404F13001C8B2FFF7E2FF70BD10B5C6
:100C7000044603E02078FFF7DBFF641C207800289F
:100C8000F8D110BD826912F0200FFBD101607047CE
:100C9000C0F8C81F704710B4446AD0F828C0890053
:100CA0000CEB841CB1FBFCF11160D0F830C01CF0DF
:100CB000200F1CBF49001160C06A00F0EE001860F0
:100CC00010BC7047D0F818C01CF0080FFAD1D0F84B
:100CD0002CC02CF0100CC0F82CC0D0F830C02CF078
:100CE000010C2CF4407CC0F830C0D0F830C0B1EB1F
:100CF000021F34BF4CF0200C2CF0200CC0F830C088
:100D000038BF5208C900B1FBF2F1491C49088A09F1
:100D1000426201F03F018162C36200218161C16AC8
:100D200041F01001C162016B40F2013211430163D5
:100D30007047816911F0080FFBD1C16A21F01001E1
:100D4000C162016B21F0010121F440710163704720
:100D5000C16A41F01001C162016B40F201321143DE
:100D600001637047C16A41F01001C162704700E041
:100D7000401E0028FCD17047FFF722FDFFF7E8FC7A
:100D8000FFF714FFFFF7A2FD0CA0FFF770FFFFF7BE
:100D900047FF11E00520FFF7EAFF0D48007830B16A
:100DA0000C4802780E210C48FFF7CFFC04E000222B
:100DB0000E210948FFF7C9FCECE700005379737472
:100DC000656D20696E697420646F6E652E2E2E002D
:100DD0000400002000000020005002404FF040704E
:100DE000E1EE100A704700000040004010000000D3
:100DF000008005401000000000500040110000007D
:100E0000009005401100000000600040120000004A
:100E100000A0054012000000007000401300000018
:100E200000B0054013000000004002401400000024
:100E300000C0054014000000005002402E000000D9
:100E400000D005402E000000006002402F0000008E
:100E500000E005402F00000000700240300000005C
:100E600000F005403000000000D0034046000000C4
:100E70000000064046000000001006404700000049
:100E80000020064048000000003006407F000000BF
:100E90000040064080000000005006408400000032
:100EA000006006408C000000004000401000000080
:100EB00000800540100000000050004011000000BC
:100EC000009005401100000000600040120000008A
:100ED00000A0054012000000007000401300000058
:100EE00000B0054013000000004002401400000064
:100EF00000C0054014000000005002402E00000019
:100F000000D005402E000000006002402F000000CD
:100F100000E005402F00000000700240300000009B
:100F200000F005403000000000D003404300000006
:100F3000000006404300000000100640440000008E
:100F40000020064045000000003006405800000028
:100F50000040064059000000005006405C000000C0
:100F60000060064064000000004000400080054032
:100F700000500040009005400060004000A0054087
:100F80000070004000B005400040024000C0054035
:100F90000050024000D005400060024000E00540E3
:100FA0000070024000F0054000D003400000064001
:100FB00000100640001006400020064000200640B9
:100FC0000030064000300640004006400040064029
:100FD0000050064000500640006006400060064099
:100FE0000070064000700640008006400080064009
:100FF0000090064000900640000700000006000038
:1010000000050000000400000003000000020000D2
:1010100000010000000000000000000018ED00E0EA
:101020001CED00E020ED00E000E400E004E400E05E
:1010300008E400E00CE400E010E400E014E400E068
:1010400018E400E01CE400E020E400E024E400E018
:1010500028E400E02CE400E030E400E034E400E0C8
:1010600038E400E03CE400E040E400E044E400E078
:1010700048E400E04CE400E050E400E054E400E028
:1010800058E400E05CE400E060E400E064E400E0D8
:1010900068E400E06CE400E070E400E074E400E088
:1010A00078E400E07CE400E080E400E084E400E038
:1010B00088E400E000E100E004E100E008E100E095
:1010C0000CE100E010E100E080E100E084E100E0FC
:1010D00088E100E08CE100E090E100E000E200E067
:1010E00004E200E008E200E00CE200E010E200E0D0
:1010F00080E200E084E200E088E200E08CE200E0D0
:1011000090E200E000D0121300389C1C40420F0017
:1011100000201C0080841E0000802500999E36005F
:101120000040380000093D0000803E0000004B00F8
:10113000404B4C0000204E00808D5B0000C05D00E5
:101140000080700000127A0000007D0080969800F8
:10115000001BB7000080BB00C0E8CE00647ADA0054
:101160000024F4000000FA0080A81201002D3101D3
:1011700000366E0140787D01400000000000000054
:101180003E00080000000000A00000000200000077
:1011900034540100000000002B7006000000000025
:1011A00028000000000000002700010000000000EF
:1011B00020000000000000005000000002000000BD
:1011C0001AAC0000000000001794090000000000A5
:1011D0001698050000000000140000000000000048
:1011E0001380080000000000A000000008000000BC
:1011F00010000000000000002800000002000000B5
:10120000400000000400000060000000000000003A
:101210005D000C0000000000500000000000000015
:101220004E0002000000000041AC01000000000080
:101230003C000000000000003A80090000000000AF
:101240003000000000000000280000000000000046
:1012500027000100000000002360060000000000DD
:1012600021600800000000001E00000000000000D7
:101270001DC004000000000050000000020000003B
:101280001800000000000000140000000000000032
:1012900060000000040000000024F4003000300072
:1012A000005A62029100910000879303D200D2009D
:1012B00000B4C4041301130100E1F5055401540105
:1012C000000E270795019501E8120000000000209C
:1012D00008000000A8020000F01200000800002032
:1012E00060020000C40200000000000001000000D5
:0400000500000335BF
:00000001FF
