:020000040000FA
:1000000060020020F90200000D0300000F03000051
:10001000110300001303000015030000000000009E
:1000200000000000000000000000000017030000B6
:1000300019030000000000001B0300001D03000066
:100040001F0300001F0300001F0300001F03000028
:100050001F0300001F0300001F0300001F03000018
:100060001F0300001F0300001F0300001F03000008
:100070001F0300001F0300001F0300001F030000F8
:100080001F0300001F0300001F0300001F030000E8
:100090001F0300001F0300001F0300001F030000D8
:1000A0001F0300001F0300001F0300001F030000C8
:1000B0001F0300001F0300001F0300001F030000B8
:1000C0001F0300001F0300001F0300001F030000A8
:1000D0001F0300001F0300001F0300001F03000098
:1000E0001F0300001F0300001F0300001F03000088
:1000F0001F0300001F0300001F0300001F03000078
:100100001F0300001F0300001F0300001F03000067
:100110001F0300001F0300001F0300001F03000057
:100120001F0300001F0300001F0300001F03000047
:100130001F0300001F0300001F0300001F03000037
:1001400000000000000000000000000000000000AF
:100150001F0300001F0300001F0300001F03000017
:10016000000000000000000000000000000000008F
:10017000000000000000000000000000000000007F
:10018000000000000000000000000000000000006F
:10019000000000000000000000000000000000005F
:1001A000000000000000000000000000000000004F
:1001B0001F0300001F0300001F0300001F030000B7
:1001C0001F0300001F0300001F0300001F030000A7
:1001D0001F0300001F0300001F0300001F03000097
:1001E0001F0300001F0300001F0300001F03000087
:1001F0001F0300001F0300001F0300001F03000077
:100200001F0300001F0300001F0300000000000088
:100210001F0300001F0300001F0300001F03000056
:100220001F0300001F0300001F0300001F03000046
:100230001F0300001F0300001F0300001F03000036
:100240001F0300001F0300001F0300001F03000026
:100250001F0300001F0300001F0300001F03000016
:100260001F0300001F0300001F03000000F002F83E
:1002700000F02EF80AA090E8000C82448344AAF112
:100280000107DA4501D100F023F8AFF2090EBAE810
:100290000F0013F0010F18BFFB1A43F001031847BA
:1002A000E0090000F00900000023002400250026DA
:1002B000103A28BF78C1FBD8520728BF30C148BFC9
:1002C0000B6070471FB500F0EBFA1FBD10B510BDF5
:1002D00000F041F81146FFF7F5FF00F0C9FA00F011
:1002E0005FF803B4FFF7F2FF03BC00F067F800000B
:1002F0000138FDD1704700004EF68850CEF2000064
:10030000016841F470010160FFF7B0BFFEE7FEE74E
:10031000FEE7FEE7FEE7FEE7FEE7FEE7FEE7FEE7B5
:1003200072B6704762B67047EFF3108072B67047CE
:1003300080F31088704730BF704702480249014A75
:10034000024B704760000020600200206000002027
:10035000704770477047754600F02CF8AE460500B0
:100360006946534620F00700854618B020B5FFF7D0
:10037000E4FFBDE820404FF000064FF000074FF0CB
:1003800000084FF0000B21F00701AC46ACE8C009B3
:10039000ACE8C009ACE8C009ACE8C0098D467047BC
:1003A00010B50446AFF300802046BDE81040FFF7CB
:1003B00098BF000000487047000000200149182045
:1003C000ABBEFEE7260002007047D0F8003412F002
:1003D000010F14BF0B438B43C0F8003412F0020F1F
:1003E000D0F8202414BF114322EA0101C0F82014E0
:1003F00070472DE9F00301264FF0000C0325C2F3EE
:10040000411706FA0CF40C4211D0D0F8C48F4FEA11
:100410004C0405FA04F928EA0908C0F8C48FD0F89A
:10042000C48F07FA04F448EA0404C0F8C44F0CF17E
:10043000010C0CF0FF0CBCF1080FE2D3D0F800C5A2
:1004400012F0010F14BF4CEA010C2CEA010CC0F8A9
:1004500000C5D0F804C512F0020F14BF4CEA010C1D
:100460002CEA010CC0F804C5D0F808C512F0040F3E
:1004700014BF4CEA010C2CEA010CC0F808C5D0F8F6
:1004800018C512F0080F14BF4CEA010C2CEA010C3D
:10049000C0F818C512F0100FD0F83C2514BF0A435D
:1004A0008A43C0F83C25D0F80C2513F0010F14BF87
:1004B0000A438A43C0F80C25D0F8102513F0020F28
:1004C00014BF0A438A43C0F81025D0F8142513F04E
:1004D000040F14BF0A438A43C0F81425D0F81C2522
:1004E00013F0080F14BF0A438A43C0F81C25D0F844
:1004F000442513F4007F14BF0A438A43C0F84425FF
:10050000D0F8402513F4407F14BF0A438A43C0F853
:100510004025D0F82825002B0CBF114322EA010109
:10052000C0F82815BDE8F003704700000E4AC0F37C
:100530000741D26E01238B401A420C4A1ABF02EBCC
:10054000C101496852F83110020AD1F82C354FF038
:100550000F0C0CFA02FC00F00F0023EA0C03904091
:100560001843C1F82C05704700E00F402C0A00002A
:1005700030B50C4605460222FFF727FF21462846E4
:10058000BDE8304008230122FFF733BF1D49096F42
:1005900041F000411B4A11671146096F41F40061A7
:1005A00011671146096E21F4F86111661146096E52
:1005B00001F5A86111661146096F21F070011167FC
:1005C0001146096F11671146096F21F40051116737
:1005D0001146096F41F0804111671146096F21F002
:1005E000FE5101EB8051116700BF0649096D01F012
:1005F00040010029F9D00349096F21F40061014A43
:100600001167704700E00F4010B5044621460248CC
:1006100000F060F810BD0000008000407CB50024B0
:10062000184800F011F9184800F00EF9174800F0CA
:1006300057F840F60200FFF779FF41F20240FFF75A
:1006400075FF24214FF04020FFF792FF00210F4853
:1006500000F020F800F04EF8054608200C49002371
:100660001A46CDE900102946084800F016F8074858
:1006700000F03BF800BF01E0601CC4B20A2CFBDBB9
:100680007CBD0000001C00F0000800F0008000406D
:1006900008AF2F00C0F8C81F704710B4002BDDE969
:1006A00001C418BF04234360B1FBFCFC0021891C7A
:1006B000BCFBF1F35B1EFF2BF9D801619107090E1A
:1006C00002F0300241EA03211143621E114301602E
:1006D00010BC7047C26812F0020FFBD081607047F7
:1006E000416821F0020141607047416841F0020118
:1006F0004160704770B44B4D2A6E296F11F0004F66
:1007000014BF01F0700002F03000202808BF4648F6
:1007100018D005DC88B1102808BF444812D009E081
:10072000302808BF47F230500CD0702808BF4FF473
:10073000004007D070BC002070477C203C4B00EA92
:10074000121018584FF0FF3311F0004F02D011F47F
:10075000006F06D001F0004C02F400645CEA040C67
:1007600036D1D5F860C1D5F8644104F01F06C4F352
:100770000424641C761C16FB04F46400B0FBF4F043
:10078000CCF309044443CCF3892C00FB0CF0D5F8DE
:1007900010C004EB902042F480020CF4704CBCF5C5
:1007A000804F08BF234B13D009DCBCF5005F08BFA6
:1007B000214B0DD0BCF5405F08BF204B08E0BCF5D5
:1007C000E04F08BF1E4B03D0BCF5104F08BF1D4BB8
:1007D00012F4800F21D011F0004F19D011F0804F8A
:1007E00009D011F4006F0CD001F0004C02F400624B
:1007F0005CEA020205D0C1F3C551491CB0FBF1F01F
:100800000BE04000C1F38651491CB0FBF1F004E05D
:10081000C2F3C351491CB0FBF1F0834238BF184604
:1008200070BC704700E00F4000093D000024F40058
:10083000C40A0000005A620200B4C40480F0FA0244
:1008400040787D01002D3101C0F307230749C0B274
:10085000194401F07043C1F3130143EA411141EA25
:10086000800040F0007001220260704700E60F40F7
:1008700000240420FFF78AFEFFF7D0FE0DE020469B
:10088000FFF7C2FE601CC11700EB5171C910A0EB4D
:10089000C101CCB20148FFF72BFDF0E715287F001E
:1008A0004FF04070E1EE100A704700000040004039
:1008B00010000000008005401000000000500040C3
:1008C0001100000000900540110000000060004091
:1008D0001200000000A0054012000000007000405F
:1008E0001300000000B0054013000000004002406B
:1008F0001400000000C00540140000000050024039
:100900002E00000000D005402E00000000600240D4
:100910002F00000000E005402F00000000700240A2
:100920003000000000F005403000000000D003401F
:10093000460000000000064046000000001006408F
:10094000470000000020064048000000003006403C
:100950007F0000000040064080000000005006407C
:1009600084000000006006408C0000000040004051
:100970001000000000800540100000000050004002
:1009800011000000009005401100000000600040D0
:100990001200000000A0054012000000007000409E
:1009A0001300000000B005401300000000400240AA
:1009B0001400000000C00540140000000050024078
:1009C0002E00000000D005402E0000000060024014
:1009D0002F00000000E005402F00000000700240E2
:1009E0003000000000F005403000000000D003405F
:1009F00043000000000006404300000000100640D5
:100A00004400000000200640450000000030064081
:100A10005800000000400640590000000050064009
:100A20005C000000006006406400000000400040E0
:100A300000800540005000400090054000600040EC
:100A400000A005400070004000B00540004002409A
:100A500000C005400050024000D005400060024048
:100A600000E005400070024000F0054000D0034067
:100A7000000006400010064000100640002006401E
:100A8000002006400030064000300640004006408E
:100A900000400640005006400050064000600640FE
:100AA000006006400070064000700640008006406E
:100AB00000800640009006400090064000D01213CF
:100AC00000389C1C40420F0000201C0080841E0047
:100AD00000802500999E36000040380000093D0046
:100AE00000803E0000004B00404B4C0000204E00B8
:100AF000808D5B0000C05D000080700000127A00F5
:100B000000007D0080969800001BB7000080BB00AD
:100B1000C0E8CE00647ADA000024F4000000FA0095
:100B200080A81201002D310100366E0140787D0150
:100B300040000000000000003E000800000000002F
:100B4000A00000000200000034540100000000007A
:100B50002B700600000000002800000000000000CC
:100B6000270001000000000020000000000000003D
:100B700050000000020000001AAC0000000000005D
:100B800017940900000000001698050000000000FE
:100B900014000000000000001380080000000000A6
:100BA000A00000000800000010000000000000008D
:100BB00028000000020000004000000004000000C7
:100BC00060000000000000005D000C00000000005C
:100BD00050000000000000004E0002000000000075
:100BE00041AC0100000000003C00000000000000DB
:100BF0003A80090000000000300000000000000002
:100C00002800000000000000270001000000000094
:100C100023600600000000002160080000000000C2
:100C20001E000000000000001DC0040000000000C5
:100C3000500000000200000018000000000000004A
:100C4000140000000000000060000000040000002C
:100C50000024F40030003000005A6202910091003C
:100C600000879303D200D20000B4C404130113011F
:100C700000E1F50554015401000E27079501950187
:100C8000900C00000000002060020000A80200009C
:04000005000002F9FC
:00000001FF
