:020000040000FA
:10000000780400206D0200007102000073020000FD
:100010007502000077020000790200000000000075
:100020000000000000000000000000007B02000053
:100030007D020000000000007F020000810200003D
:10004000830200008302000083020000830200009C
:10005000830200008302000083020000830200008C
:10006000830200008302000083020000830200007C
:10007000830200008302000083020000830200006C
:10008000830200008302000083020000830200005C
:10009000830200008302000083020000830200004C
:1000A000830200008302000083020000830200003C
:1000B000830200008302000083020000830200002C
:1000C000830200008302000083020000830200001C
:1000D000830200008302000083020000830200000C
:1000E00083020000830200008302000083020000FC
:1000F00083020000830200008302000083020000EC
:1001000083020000830200008302000083020000DB
:1001100083020000830200008302000083020000CB
:1001200083020000830200008302000083020000BB
:1001300083020000830200008302000083020000AB
:1001400000000000000000000000000000000000AF
:10015000830200008302000083020000830200008B
:10016000000000000000000000000000000000008F
:10017000000000000000000000000000000000007F
:10018000000000000000000000000000000000006F
:10019000000000000000000000000000000000005F
:1001A000000000000000000000000000000000004F
:1001B000830200008302000083020000830200002B
:1001C000830200008302000083020000830200001B
:1001D000830200008302000083020000830200000B
:1001E00083020000830200008302000083020000FB
:1001F00083020000830200008302000083020000EB
:10020000830200008302000083020000000000005F
:1002100083020000830200008302000083020000CA
:1002200083020000830200008302000083020000BA
:1002300083020000830200008302000083020000AA
:10024000830200008302000083020000830200009A
:10025000830200008302000083020000830200008A
:1002600083020000830200008302000000F00AB84D
:10027000FEE7FEE7FEE7FEE7FEE7FEE7FEE7FEE756
:10028000FEE7FEE700F002F800F03AF80AA090E876
:10029000000C82448344AAF10107DA4501D100F041
:1002A0002FF8AFF2090EBAE80F0013F0010F18BFD4
:1002B000FB1A43F001031847280500004805000019
:1002C000103A24BF78C878C1FAD8520724BF30C882
:1002D00030C144BF04680C60704700000023002454
:1002E00000250026103A28BF78C1FBD8520728BF46
:1002F00030C148BF0B6070471FB51FBD10B510BDA2
:1003000000F02DF81146FFF7F7FF00F03BFA00F080
:100310004BF803B4FFF7F2FF03BC00F053F8000002
:100320000138FDD17047000072B6704762B6704761
:10033000EFF3108072B6704780F31088704730BFBB
:10034000704702480249014A024B7047780000207A
:100350007804002078000020704770477047754689
:1003600000F02CF8AE4605006946534620F0070021
:10037000854618B020B5FFF7E4FFBDE820404FF0F8
:1003800000064FF000074FF000084FF0000B21F07F
:100390000701AC46ACE8C009ACE8C009ACE8C0094C
:1003A000ACE8C0098D46704710B50446AFF3008035
:1003B0002046BDE81040FFF7ACBF00000048704782
:1003C0001400002001491820ABBEFEE72600020001
:1003D00070470000002000BF0EE0002100EB40024B
:1003E000074B995400EB40021A44517000EB400255
:1003F0001A449170411CC8B20528EEDB704700001A
:10040000040000201D49096F41F000411B4A11679B
:100410001146096F41F4006111671146096E21F41C
:10042000F86111661146096E01F5A8611166114661
:10043000096F21F0700111671146096F11671146AC
:10044000096F21F4005111671146096F41F0804195
:1004500011671146096F21F0FE5101EB80511167C0
:1004600000BF0649096D01F040010029F9D0034998
:10047000096F21F40061014A1167704700E00F40E5
:1004800000BF0449C96801F002010029F9D00149FF
:10049000886070470080004008B53448006840F02C
:1004A00001003249086031481438006840F001000A
:1004B0002E49143908602E48006800902D480068C5
:1004C00040F024002B4908602B4800682B49084065
:1004D0002B4908442849086027481038006840F034
:1004E00024002549103908602348001F006820F0C7
:1004F00024002149091F08602248406820F00200BA
:10050000204948600846406820F0040048601E48C2
:10051000006820F00F001C4908601A48006920F0AC
:10052000FF000C3017490861084600684FF6C0719B
:100530008843144908600846006820F030000860CD
:100540000846006820F00F00C01D0860084640689B
:1005500040F0020048600020009002E00098401C3B
:10056000009000980A28F9D308BD00001CE60F404F
:1005700008E10F40204400402C450040FFF00FFFF1
:100580000002200000800040C88F004070B50025A8
:10059000002400BF42E0002411E005EB45002149A2
:1005A0000844407880212141084018B1F820FFF725
:1005B00067FF02E0E020FFF763FF601CC4B2082C75
:1005C000EBDB002410E005EB45001649085C8021B8
:1005D0002141084018B1F820FFF752FF02E0E02067
:1005E000FFF74EFF601CC4B2082CECDB002411E0C6
:1005F00005EB45000B4908448078802121410840E3
:1006000018B1F820FFF73CFF02E0E020FFF738FFC9
:10061000601CC4B2082CEBDB681CC5B2052DBADB2C
:1006200070BD00000400002001B5FFF7D3FE0848AC
:100630000078009900F00EF805480078401C05216C
:1006400090FBF1F201FB12000149087008BD0000A7
:100650000000002003B50246052A13DA9DF80500C4
:1006600002EB4201084B194448709DF8040002EB6C
:10067000420158549DF8060002EB4201194488706B
:1006800001200CBD0020FCE7040000202148006888
:1006900040F001001F4908601E481038006840F013
:1006A00001001C491039086000BF1B48006800F0B9
:1006B00001000028F9D01948006B20F0010017490B
:1006C00008631B204862082088627020C8620846C0
:1006D000006B40F20131084310490863104800687C
:1006E00040F003000E4908600D48FC30006840F0FF
:1006F00003000B49FC3108600A48006820F0FF0045
:10070000113008490860081F006820F00300091F25
:100710000860704718E60F4008EA0F4000C000402C
:10072000204400402C45004000BF0449896901F085
:1007300020010029F9D101490860704700C000403C
:1007400000B5024604E092F90000FFF7EDFF521CED
:1007500010780028F7D100BD30B504460A2C0AD322
:100760000A20B4FBF0F52846FFF7F6FF0A20B4FB99
:10077000F0F100FB114404F1300040B2FFF7D4FF68
:1007800030BD000008B50020009000BF0420FFF736
:1007900039FEFFF77BFFFFF77FFE80208DF8010019
:1007A00000208DF800008DF8020010E03120FFF7E6
:1007B000BBFF7920FFF7D0FF05A0FFF7C1FF00982E
:1007C000FFF732FFFFF7E2FE0448FFF7A9FDEDE770
:1007D00061736461333372736466330040420F00A7
:1007E000000800000000002004000000C00200001B
:1007F000040800000400002074040000DC02000073
:0408000000000000F4
:040000050000026D88
:00000001FF
