:020000040000FA
:10000000700400206D020000710200007302000005
:100010007502000077020000790200000000000075
:100020000000000000000000000000007B02000053
:100030007D020000000000007F020000810200003D
:10004000830200008302000083020000830200009C
:10005000830200008302000083020000830200008C
:10006000830200008302000083020000830200007C
:10007000830200008302000083020000830200006C
:10008000830200008302000083020000830200005C
:10009000830200008302000083020000830200004C
:1000A000830200008302000083020000830200003C
:1000B000830200008302000083020000830200002C
:1000C000830200008302000083020000830200001C
:1000D000830200008302000083020000830200000C
:1000E00083020000830200008302000083020000FC
:1000F00083020000830200008302000083020000EC
:1001000083020000830200008302000083020000DB
:1001100083020000830200008302000083020000CB
:1001200083020000830200008302000083020000BB
:1001300083020000830200008302000083020000AB
:1001400000000000000000000000000000000000AF
:10015000830200008302000083020000830200008B
:10016000000000000000000000000000000000008F
:10017000000000000000000000000000000000007F
:10018000000000000000000000000000000000006F
:10019000000000000000000000000000000000005F
:1001A000000000000000000000000000000000004F
:1001B000830200008302000083020000830200002B
:1001C000830200008302000083020000830200001B
:1001D000830200008302000083020000830200000B
:1001E00083020000830200008302000083020000FB
:1001F00083020000830200008302000083020000EB
:10020000830200008302000083020000000000005F
:1002100083020000830200008302000083020000CA
:1002200083020000830200008302000083020000BA
:1002300083020000830200008302000083020000AA
:10024000830200008302000083020000830200009A
:10025000830200008302000083020000830200008A
:1002600083020000830200008302000000F00AB84D
:10027000FEE7FEE7FEE7FEE7FEE7FEE7FEE7FEE756
:10028000FEE7FEE700F002F800F02CF80AA090E884
:10029000000C82448344AAF10107DA4501D100F041
:1002A00021F8AFF2090EBAE80F0013F0010F18BFE2
:1002B000FB1A43F001031847E4040000F4040000B3
:1002C0000023002400250026103A28BF78C1FBD85F
:1002D000520728BF30C148BF0B6070471FB51FBD14
:1002E00010B510BD00F02DF81146FFF7F7FF00F034
:1002F00043F900F04BF803B4FFF7F2FF03BC00F042
:1003000053F800000138FDD17047000072B6704705
:1003100062B67047EFF3108072B6704780F31088B2
:10032000704730BF704702480249014A024B70478C
:10033000700000207004002070000020704770479B
:100340007047754600F02CF8AE46050069465346E6
:1003500020F00700854618B020B5FFF7E4FFBDE8A0
:1003600020404FF000064FF000074FF000084FF01C
:10037000000B21F00701AC46ACE8C009ACE8C009AD
:10038000ACE8C009ACE8C0098D46704710B504461A
:10039000AFF300802046BDE81040FFF7ACBF00007F
:1003A000004870471000002001491820ABBEFEE74E
:1003B00026000200704700001D49096F41F000410E
:1003C0001B4A11671146096F41F40061116711461C
:1003D000096E21F4F86111661146096E01F5A861F4
:1003E00011661146096F21F0700111671146096FFE
:1003F00011671146096F21F4005111671146096F09
:1004000041F0804111671146096F21F0FE5101EB67
:100410008051116700BF0649096D01F040010029B4
:10042000F9D00349096F21F40061014A116770474F
:1004300000E00F4000BF0449C96801F00201002933
:10044000F9D00149886070470080004008B5344801
:10045000006840F0010032490860314814380068F3
:1004600040F001002E49143908602E4800680090C1
:100470002D48006840F024002B4908602B48006894
:100480002B4908402B490844284908602748103860
:10049000006840F024002549103908602348001FF7
:1004A000006820F024002149091F086022484068A4
:1004B00020F00200204948600846406820F004000F
:1004C00048601E48006820F00F001C4908601A4868
:1004D000006920F0FF000C301749086108460068E9
:1004E0004FF6C0718843144908600846006820F040
:1004F000300008600846006820F00F00C01D08604A
:100500000846406840F0020048600020009002E089
:100510000098401C009000980A28F9D308BD0000FC
:100520001CE60F4008E10F40204400402C450040ED
:10053000FFF00FFF0002200000800040C88F004045
:1005400003B50246052A13DA9DF8050002EB4201C5
:10055000084B194448709DF8040002EB42015854BE
:100560009DF8060002EB42011944887001200CBD81
:100570000020FCE70000002008B5012600200090C4
:100580000027002500240420FFF716FFFFF75EFF79
:1005900001208DF801008DF800008DF80200002088
:1005A0000099FFF7CDFF00208DF8010001208DF8A4
:1005B000000000208DF8020001200099FFF7C0FF25
:1005C00001208DF801008DF800008DF80200022056
:1005D0000099FFF7B5FF00208DF8010001208DF88C
:1005E000000000208DF8020003200099FFF7A8FF0B
:1005F00001208DF801008DF800008DF80200042024
:100600000099FFF79DFFC4E0002542E0002411E0BF
:1006100005EB45005F490844407846FA04F108407C
:1006200018B1F820FFF706FF02E0E020FFF702FF15
:10063000601CC4B2082CEBDB002410E005EB450085
:100640005449085C46FA04F1084018B1F820FFF755
:10065000F1FE02E0E020FFF7EDFE601CC4B2082CC2
:10066000ECDB002411E005EB45004A4908448078A2
:1006700046FA04F1084018B1F820FFF7DBFE02E06B
:10068000E020FFF7D7FE601CC4B2082CEBDB681C2F
:10069000C5B2052DBADB4048FFF734FE87F00107ED
:1006A000DFB300208DF8010001208DF8000000204C
:1006B0008DF802000099FFF743FF01208DF801003B
:1006C0008DF800008DF802000099FFF739FF002037
:1006D0008DF8010001208DF8000000208DF8020047
:1006E00002200099FFF72CFF01208DF801008DF802
:1006F00000008DF8020003200099FFF721FF002081
:100700008DF8010001208DF8000000208DF8020016
:1007100004200099FFF714FF3BE0FFE701208DF86C
:1007200001008DF800008DF8020000200099FFF70D
:1007300007FF00208DF8010001208DF80000002047
:100740008DF8020001200099FFF7FAFE01208DF8D4
:1007500001008DF800008DF8020002200099FFF7DB
:10076000EFFE00208DF8010001208DF80000002030
:100770008DF8020003200099FFF7E2FE01208DF8BA
:1007800001008DF800008DF8020004200099FFF7A9
:10079000D7FE39E70000002055615100AC0700008A
:0C07A0000000002070040000C0020000F7
:040000050000026D88
:00000001FF
