:020000040000FA
:10000000600400206D020000710200007302000015
:100010007502000077020000790200000000000075
:100020000000000000000000000000007B02000053
:100030007D020000000000007F020000810200003D
:10004000830200008302000083020000830200009C
:10005000830200008302000083020000830200008C
:10006000830200008302000083020000830200007C
:10007000830200008302000083020000830200006C
:10008000830200008302000083020000830200005C
:10009000830200008302000083020000830200004C
:1000A000830200008302000083020000830200003C
:1000B000830200008302000083020000830200002C
:1000C000830200008302000083020000830200001C
:1000D000830200008302000083020000830200000C
:1000E00083020000830200008302000083020000FC
:1000F00083020000830200008302000083020000EC
:1001000083020000830200008302000083020000DB
:1001100083020000830200008302000083020000CB
:1001200083020000830200008302000083020000BB
:1001300083020000830200008302000083020000AB
:1001400000000000000000000000000000000000AF
:10015000830200008302000083020000830200008B
:10016000000000000000000000000000000000008F
:10017000000000000000000000000000000000007F
:10018000000000000000000000000000000000006F
:10019000000000000000000000000000000000005F
:1001A000000000000000000000000000000000004F
:1001B000830200008302000083020000830200002B
:1001C000830200008302000083020000830200001B
:1001D000830200008302000083020000830200000B
:1001E00083020000830200008302000083020000FB
:1001F00083020000830200008302000083020000EB
:10020000830200008302000083020000000000005F
:1002100083020000830200008302000083020000CA
:1002200083020000830200008302000083020000BA
:1002300083020000830200008302000083020000AA
:10024000830200008302000083020000830200009A
:10025000830200008302000083020000830200008A
:1002600083020000830200008302000000F00AB84D
:10027000FEE7FEE7FEE7FEE7FEE7FEE7FEE7FEE756
:10028000FEE7FEE700F002F800F02CF80AA090E884
:10029000000C82448344AAF10107DA4501D100F041
:1002A00021F8AFF2090EBAE80F0013F0010F18BFE2
:1002B000FB1A43F00103184794020000A402000057
:1002C0000023002400250026103A28BF78C1FBD85F
:1002D000520728BF30C148BF0B6070471FB51FBD14
:1002E00010B510BD00F029F81146FFF7F7FF00F038
:1002F00021F900F047F803B4FFF7F2FF03BC00F068
:100300004FF8000072B6704762B67047EFF3108086
:1003100072B6704780F31088704730BF704702484C
:100320000249014A024B704760000020600400202F
:1003300060000020704770477047754600F02CF849
:10034000AE4605006946534620F00700854618B0C2
:1003500020B5FFF7E4FFBDE820404FF000064FF066
:1003600000074FF000084FF0000B21F00701AC46EA
:10037000ACE8C009ACE8C009ACE8C009ACE8C00909
:100380008D46704710B50446AFF300802046BDE8A7
:100390001040FFF7B0BF0000004870470000002089
:1003A00001491820ABBEFEE726000200704700009E
:1003B0001D49096F41F000411B4A11671146096F41
:1003C00041F4006111671146096E21F4F86111666C
:1003D0001146096E01F5A86111661146096F21F0F9
:1003E000700111671146096F11671146096F21F4F9
:1003F000005111671146096F41F0804111671146A4
:10040000096F21F0FE5101EB8051116700BF0649D1
:10041000096D01F040010029F9D00349096F21F469
:100420000061014A1167704700E00F4000BF0449B6
:10043000C96801F002010029F9D0014988607047BC
:100440000080004008B53348006840F001003149A1
:10045000086030481438006840F001002D49143914
:1004600008602D48006800902C48006840F0240087
:100470002A4908602948FC30006840F024002749D8
:10048000FC3108602648006826490840264908448F
:1004900023490860081F006820F02400091F086035
:1004A0002248406820F00200204948600846406821
:1004B00020F0040048601E48006820F00F001C492E
:1004C00008601A48006920F0FF00183017490861D9
:1004D000084600684FF6C071884314490860084612
:1004E000006820F0300008600846006820F00F0027
:1004F000C01D08600846406840F0020048600020C7
:10050000009002E00098401C009000980A28F9D35F
:1005100008BD00001CE60F4008E10F4020440040E9
:100520002C450040FFF00FFF00022000008000403B
:10053000C88F004001240420FFF73AFFFFF782FF35
:1005400003E0FF242046FFF771FFFAE75C05000097
:0C0550000000002060040000C002000059
:040000050000026D88
:00000001FF
