:020000040000FA
:1000000060020020ED020000F5020000F70200008F
:10001000F9020000FB020000FD02000000000000E9
:10002000000000000000000000000000FF020000CF
:1000300001030000000000000303000005030000AE
:1000400007030000090300000B0300000D0300007C
:100050000F0300001103000013030000150300004C
:1000600017030000190300001B0300001D0300001C
:100070001F030000210300002303000025030000EC
:1000800027030000290300002B0300002D030000BC
:100090002F0300003103000033030000350300008C
:1000A00037030000390300003B0300003D0300005C
:1000B0003F0300004103000043030000450300002C
:1000C00047030000490300004B0300004D030000FC
:1000D0004F030000510300005303000055030000CC
:1000E0005703000059030000000000005B030000FC
:1000F0005D0300005F030000610300006303000074
:100100006503000067030000690300006B03000043
:1001100000000000000000006D0300006F030000FD
:1001200071030000730300007503000077030000F3
:10013000790300007B0300007D0300007F030000C3
:1001400000000000000000000000000000000000AF
:100150008103000083030000850300008703000083
:10016000000000000000000000000000000000008F
:10017000000000000000000000000000000000007F
:10018000000000000000000000000000000000006F
:10019000000000000000000000000000000000005F
:1001A000000000000000000000000000000000004F
:1001B000890300008B0300008D0300008F03000003
:1001C00091030000930300009503000097030000D3
:1001D000990300009B0300009D0300009F030000A3
:1001E000A1030000A3030000A5030000000000001D
:1001F00000000000A7030000A9030000AB030000FB
:10020000AD030000AF03000000000000000000008C
:10021000B1030000B3030000B5030000B703000002
:10022000B9030000BB030000BD030000BF030000D2
:10023000C1030000C3030000C5030000C7030000A2
:10024000C9030000CB030000CD030000CF03000072
:10025000D1030000D3030000D5030000D703000042
:10026000D9030000DB030000DD03000000F002F80A
:1002700000F02CF80AA090E8000C82448344AAF114
:100280000107DA4501D100F021F8AFF2090EBAE812
:100290000F0013F0010F18BFFB1A43F001031847BA
:1002A00068020000780200000023002400250026D8
:1002B000103A28BF78C1FBD8520728BF30C148BFC9
:1002C0000B6070471FB51FBD10B510BD00F09BF847
:1002D0001146FFF7F7FF00F015F900F0B9F803B485
:1002E000FFF7F2FF03BC00F0C1F800003F48804771
:1002F0003F480047FEE7FEE7FEE7FEE7FEE7FEE7D2
:10030000FEE7FEE7FEE7FEE7FEE7FEE7FEE7FEE7C5
:10031000FEE7FEE7FEE7FEE7FEE7FEE7FEE7FEE7B5
:10032000FEE7FEE7FEE7FEE7FEE7FEE7FEE7FEE7A5
:10033000FEE7FEE7FEE7FEE7FEE7FEE7FEE7FEE795
:10034000FEE7FEE7FEE7FEE7FEE7FEE7FEE7FEE785
:10035000FEE7FEE7FEE7FEE7FEE7FEE7FEE7FEE775
:10036000FEE7FEE7FEE7FEE7FEE7FEE7FEE7FEE765
:10037000FEE7FEE7FEE7FEE7FEE7FEE7FEE7FEE755
:10038000FEE7FEE7FEE7FEE7FEE7FEE7FEE7FEE745
:10039000FEE7FEE7FEE7FEE7FEE7FEE7FEE7FEE735
:1003A000FEE7FEE7FEE7FEE7FEE7FEE7FEE7FEE725
:1003B000FEE7FEE7FEE7FEE7FEE7FEE7FEE7FEE715
:1003C000FEE7FEE7FEE7FEE7FEE7FEE7FEE7FEE705
:1003D000FEE7FEE7FEE7FEE7FEE7FEE7FEE70000DA
:1003E00004480549034A054B704700007D0400009E
:1003F0006D0200006000002060020020600000200C
:10040000704770477047754600F02CF8AE460500FF
:100410006946534620F00700854618B020B5FFF71F
:10042000DFFFBDE820404FF000064FF000074FF01F
:1004300000084FF0000B21F00701AC46ACE8C00902
:10044000ACE8C009ACE8C009ACE8C0098D4670470B
:1004500010B50446AFF300802046BDE81040FFF71A
:100460003EBF0000004870470000002001491820EE
:10047000ABBEFEE726000200704700001849194A8B
:100480001167194911661949116619491167002048
:1004900000E0401CB0F57A7FFBD31649114A116683
:1004A00015491167002000E0401CB0F57A7FFBD3AE
:1004B00012490C4A116600BF0A49096D01F040015A
:1004C0004029F9D10E49074A11664FF0C0711167F2
:1004D000002000E0401C42F210718842FAD37047BD
:1004E0001028800700E00F40D13A8E07422D9E0170
:1004F00000288001420D9E0100088001420DDE01AE
:100500004205DE01002070471805000000000020B1
:0805100060020000A8020000D7
:04000005000002ED08
:00000001FF
