:020000040000FA
:100000000011002055030000690300006B0300008D
:100010006D0300006F03000071030000000000008A
:10002000000000000000000000000000730300005A
:100030007503000000000000770300000D030000BE
:100040007B0300007B0300007B030000E10700004E
:100050007B0300007B0300007B0300007B030000A8
:100060007B0300007B0300007B0300007B03000098
:100070007B0300007B0300007B0300007B03000088
:100080007B0300007B0300007B0300007B03000078
:100090007B0300007B0300007B0300007B03000068
:1000A0007B0300007B0300007B0300007B03000058
:1000B0007B0300007B030000E90800007B030000D5
:1000C0007B0300007B0300007B0300007B03000038
:1000D0007B0300007B0300007B0300007B03000028
:1000E0007B0300007B0300007B0300007B03000018
:1000F0007B0300007B0300007B0300007B03000008
:100100007B0300007B0300007B0300007B030000F7
:100110007B0300007B0300007B0300007B030000E7
:100120007B0300007B0300007B0300007B030000D7
:100130007B0300007B0300007B0300007B030000C7
:1001400000000000000000000000000000000000AF
:100150007B0300007B0300007B0300007B030000A7
:10016000000000000000000000000000000000008F
:10017000000000000000000000000000000000007F
:10018000000000000000000000000000000000006F
:10019000000000000000000000000000000000005F
:1001A000000000000000000000000000000000004F
:1001B0007B0300007B0300007B0300007B03000047
:1001C0007B0300007B0300007B0300007B03000037
:1001D0003D1100007B030000551100007B0300006F
:1001E0006D1100007B0300007B0300007B03000017
:1001F0007B0300007B0300007B0300007B03000007
:100200007B0300007B0300007B0300000000000074
:100210007B0300007B0300007B0300007B030000E6
:100220007B0300007B0300007B0300007B030000D6
:100230007B0300007B0300007B0300007B030000C6
:100240007B0300007B0300007B0300007B030000B6
:100250007B0300007B0300007B0300007B030000A6
:100260007B0300007B0300007B03000000F002F82A
:1002700000F03CF80AA090E8000C82448344AAF104
:100280000107DA4501D100F031F8AFF2090EBAE802
:100290000F0013F0010F18BFFB1A43F001031847BA
:1002A0003C1000005C100000103A24BF78C878C1F0
:1002B000FAD8520724BF30C830C144BF04680C606C
:1002C000704700000023002400250026103A28BFB4
:1002D00078C1FBD8520728BF30C148BF0B607047B8
:1002E0001FB500F0F5FF1FBD10B510BD00F061F89F
:1002F0001146FFF7F5FF00F045FF00F07FF803B46B
:10030000FFF7F2FF03BC00F087F8000072B62DE99A
:10031000F00F0F480168C1F800D001B500F0C6FD2C
:10032000BDE801400168D1F800D0BDE8F00F62B629
:10033000704707480268D2F800D0BDE8F00F0FBC44
:100340005DF804CB01B05DF804EB01B062B6704714
:10035000000000204EF68850CEF20000016841F403
:1003600070010160FFF782BFFEE7FEE7FEE7FEE7F0
:10037000FEE7FEE7FEE7FEE7FEE7FEE772B6704740
:1003800062B67047EFF3108072B6704780F3108842
:10039000704730BF704702480249014A024B70471C
:1003A000000F002000110020000F00207047704750
:1003B0007047754600F02CF8AE4605006946534676
:1003C00020F00700854618B020B5FFF7E4FFBDE830
:1003D00020404FF000064FF000074FF000084FF0AC
:1003E000000B21F00701AC46ACE8C009ACE8C0093D
:1003F000ACE8C009ACE8C0098D46704710B50446AA
:10040000AFF300802046BDE81040FFF778BF000042
:1004100000487047A00E002001491820ABBEFEE73F
:100420002600020070470000014800687047000085
:100430002C0000201F48006F40F000401D49086755
:100440000846006F40F4006008670846006E20F41C
:10045000F86008660846006E00F5A8600866084661
:10046000006F20F0700008670846006F08670846B4
:10047000006F20F4005008670846006F40F080408D
:1004800008670846006F20F0FE5000F18070086792
:1004900000BF0848006D00F040000028F9D0054872
:1004A000006F20F4006003490867034803490860AF
:1004B0007047000000E00F4000B4C4042C0000208E
:1004C0002DE9F04106460C4615461CB142F210706B
:1004D000844201D9BDE8F081062D00DD0625FFF735
:1004E00051FF07461F4806601F48006840F0200083
:1004F0001D49086000BF1D48006800F0200000286A
:10050000F9D01B48C06820F001001949C8600420D8
:1005100008600220486017480068B0FBF4F0401EF5
:10052000886200208863012048620846806940F0A4
:10053000010088611048006820F0FF0040EA451083
:100540000D4908604FF480700C4908600848C06885
:1005500040F001000649C8603846FFF717FF00BFAA
:10056000B8E700005C0000205CE60F405CEA0F404A
:1005700000F004402C00002068E400E00CE100E002
:100580002DE9F04106460C4615461CB142F21070AA
:10059000844201D9BDE8F081062D00DD0625FFF774
:1005A000F1FE07461E4806601E48006840F0100035
:1005B0001C49086000BF1C48006800F010000028BB
:1005C000F9D01A48C06820F001001849C86004201A
:1005D00008600220486016480068B0FBF4F0401E36
:1005E000886200208863012048620846806940F0E4
:1005F000010088610F48006820F47F0040EA455000
:100600000C49086040200C4908600848C06840F068
:1006100001000649C8603846FFF7B8FE00BFB9E7D9
:10062000600000205CE60F405CEA0F4000E0044000
:100630002C00002064E400E00CE100E0D0F800347D
:1006400012F0010F14BF0B438B43C0F8003412F0BB
:10065000020FD0F8202414BF114322EA0101C0F890
:1006600020147047C0F81C147047D0F8102422EAF8
:100670000101C0F810147047002914BFD0F8180405
:10068000D0F8140470472DE9F00301264FF0000C58
:100690000325C2F3411706FA0CF40C4211D0D0F82E
:1006A000C48F4FEA4C0405FA04F928EA0908C0F897
:1006B000C48FD0F8C48F07FA04F448EA0404C0F8E1
:1006C000C44F0CF1010C0CF0FF0CBCF1080FE2D38D
:1006D000D0F800C512F0010F14BF4CEA010C2CEA4F
:1006E000010CC0F800C5D0F804C512F0020F14BF09
:1006F0004CEA010C2CEA010CC0F804C5D0F808C57E
:1007000012F0040F14BF4CEA010C2CEA010CC0F8E3
:1007100008C5D0F818C512F0080F14BF4CEA010C38
:100720002CEA010CC0F818C512F0100FD0F83C25C7
:1007300014BF0A438A43C0F83C25D0F80C2513F0B7
:10074000010F14BF0A438A43C0F80C25D0F81025C6
:1007500013F0020F14BF0A438A43C0F81025D0F8E3
:10076000142513F0040F14BF0A438A43C0F814255C
:10077000D0F81C2513F0080F14BF0A438A43C0F8B1
:100780001C25D0F8442513F4007F14BF0A438A4384
:10079000C0F84425D0F8402513F4407F14BF0A4325
:1007A0008A43C0F84025D0F82825002B0CBF114300
:1007B00022EA0101C0F82815BDE8F003704730B502
:1007C0000C46054608230122FFF75DFF2146284617
:1007D000BDE830400122FFF731BF40F821207047CB
:1007E00010B501213E48FFF747FFC4B204F00100F5
:1007F00050B101213A48FFF735FF3A4800F0DEF9E1
:1008000001213748FFF731FF04F0020058B10221FF
:100810003348FFF727FF3348001D00F0CFF90221CE
:100820002F48FFF722FF04F0040058B104212C48A0
:10083000FFF718FF2B48083000F0C0F904212848C2
:10084000FFF713FF04F0080058B108212448FFF710
:1008500009FF24480C3000F0B1F908212048FFF7C7
:1008600004FF04F0100058B110211D48FFF7FAFEF4
:100870001C48103000F0A2F910211948FFF7F5FECE
:1008800004F0200058B120211548FFF7EBFE154871
:10089000143000F093F920211148FFF7E6FE04F030
:1008A000400058B140210E48FFF7DCFE0D481830DB
:1008B00000F084F940210A48FFF7D7FE04F08000D9
:1008C00058B180210648FFF7CDFE06481C3000F0E5
:1008D00075F980210248FFF7C8FE00F089F910BDC4
:1008E00000700040080E002010B501212848FFF7D5
:1008F000C3FEC4B204F0010050B101212448FFF747
:10090000B1FE244800F05AF901212148FFF7ADFE5D
:1009100004F0020058B102211D48FFF7A3FE1D4854
:10092000001D00F04BF902211948FFF79EFE04F06C
:10093000040058B104211648FFF794FE154808300A
:1009400000F03CF904211248FFF78FFE04F0080084
:1009500058B108210E48FFF785FE0E480C3000F014
:100960002DF908210A48FFF780FE04F0100058B165
:1009700010210748FFF776FE0648103000F01EF9F8
:1009800010210348FFF771FE00F032F910BD00009E
:1009900000500240480E002000200449086004E096
:1009A00002480068401C01490860F9E72400002063
:1009B00010B503460A461148007802281ADA0021C9
:1009C000184600F0DFF80D48007800EB40000C49B5
:1009D00001EB800042600A200849097801EB4101DF
:1009E000074C04EB8101886004480078401C0349EF
:1009F000087001E0002010BD0120FCE70400002089
:100A0000900D00202DE9F84F05460E4617469846F2
:100A1000DDE90BABDDF82890FFF7B4FC009042480D
:100A2000A0F114014860143088611430C862143099
:100A3000086414304865143088661430C8678C38F0
:100A4000C0F89010002408E0002004EB8401364A2E
:100A5000143A02EB81018860641C082CF4DB3248F4
:100A6000143832490860002000F038FA3048C0F8E5
:100A70008851012000F032FA2D48C0F81873022086
:100A800000F02CFA2A48C0F8A894032000F026FAB7
:100A90002748C0F838B6042000F020FA24490E9800
:100AA000C1F8C807052000F019FA21491098C1F8CB
:100AB0005809062000F012FA1D491298C1F8E80AF8
:100AC000072000F00BFA1A491498C1F8780C16495F
:100AD00014390E74084680F8248080F838A00D98E8
:100AE000C1B21148143880F84C100F98C1B20E48AA
:100AF000143880F860101198C1B20B48143880F88F
:100B000074101398C1B20848143880F888101598EA
:100B1000C1B20548143880F89C100098FFF736FCE5
:100B20000120BDE8F88F00008400002000000020B4
:100B30001001002000B50246002082F8340082F83F
:100B40003500002102F12C0000F01CF8012102F117
:100B5000300000F017F800BD10B5FFF70FFCFFF7ED
:100B600069FC01224FF47A710448FFF7A9FC0322C3
:100B70004FF47A710248FFF703FD10BD2112000007
:100B8000991200000160704710B5044600204FF034
:100B9000E021086188610848006820F07F4040F04B
:100BA000604005490860601E4FF0E0214861072061
:100BB0000861FFF7BEFB10BD20ED00E070B50446F4
:100BC000FFF7DCFB2068401C20602068002809DC5F
:100BD00006480068456800E06D68A868A042FBD13F
:100BE0000020A860FFF7CCFB70BD000000000020D3
:100BF00000204FF0E02188614FF0806001490860DB
:100C00007047000004ED00E010B50446FFF7B6FBA6
:100C10002068401E20602068002806DA044800682A
:100C20008460FFF7ADFBFFF7E3FFFFF7A9FB10BD03
:100C3000000000206848006840F004006649086031
:100C400000BF6648006800F004000028F9D064483E
:100C5000006820F0A00062490860081D0068614932
:100C600008405F49091D08605F48006840F0A00027
:100C70005D4908605C482030006820F0A0005A49B7
:100C80002031086056481838006820F0A000544908
:100C900018390860081D006820F0A000091D0860D0
:100CA0004F480C38006840F0A0004D490C390860EE
:100CB0004D48001F006820F0A0004C49C1F8FC031B
:100CC0004548006840F010004349086000BF4348B1
:100CD000006800F010000028F9D04548006820F0B6
:100CE0000F0043490860081D00686FF30F00091DDD
:100CF00008604048006840F00F003E4908603D48E9
:100D00002030006820F00F003A4920310860384850
:100D10001838006820F00F00354918390860081DA0
:100D2000006820F00F00091D086031480C38006889
:100D300040F00F002E490C3908602E48001F006853
:100D400020F00F002C49C1F8FC032348006840F054
:100D500020002149086000BF2048006800F0200002
:100D60000028F9D02548006820F0020023490860D7
:100D7000081D006820F0F000091D08602048006888
:100D800040F002001E4908601D482030006820F035
:100D900002001B492031086018481838006820F00C
:100DA0000200164918390860081D006820F002008A
:100DB000091D086011480C38006840F002000F4916
:100DC0000C3908600E48001F006820F002000D4931
:100DD000C1F8FC037047000008E60F4008EA0F4026
:100DE00028650040FFFF0F0F0064004000600040D6
:100DF000284502400044024000400240285502407D
:100E0000005402400050024010B50446224608211A
:100E10000148FFF7E2FC10BD0050024010B5154834
:100E200000F004F900BF134800F014F90028FAD0CC
:100E3000114812490860081D006840F01F00091D94
:100E400008600C210E48FFF710FC0C210C48FFF73E
:100E5000B6FC01220C210A48FFF7F0FB0823772299
:100E60000C210748FFF70FFC00220C210448FFF774
:100E7000B4FC10BD050800F04B434F4C2055024018
:100E80000050024010B5FF24042211460648FFF727
:100E9000A4FC01E0601EC4B2002CFBD1002204219E
:100EA0000148FFF79AFC10BD00500240FF220A4B98
:100EB000186800BF4068037C934205DA83681BB959
:100EC000C3680BB9027C0146034B1B688342F1D116
:100ED000014B1960704700000000002000EBC001CA
:100EE00001EB00114F4A02EB011101F5A87100EB73
:100EF00080024D4B43F822104FF0807100EBC0028E
:100F000002EB0012474B03EB0212C2F88C114FF0B8
:100F1000143100EBC00202EB001203EB0212C2F824
:100F200084114FF0123100EBC00202EB001203EB10
:100F30000212C2F880114FF0033100EBC00202EB45
:100F4000001203EB0212C2F87C114FF0023100EBE9
:100F5000C00202EB001203EB0212C2F87811491032
:100F600000EBC00202EB001203EB0212C2F8741194
:100F7000002100EBC00202EB001203EB0212C2F8E8
:100F800070114FF0113100EBC00202EB001203EBC5
:100F90000212C2F86C114FF0103100EBC00202EBEC
:100FA000001203EB0212C2F868114FF0093100EB96
:100FB000C00202EB001203EB0212C2F864114FF000
:100FC000083100EBC00202EB001203EB0212C2F880
:100FD00060114FF0073100EBC00202EB001203EB8F
:100FE0000212C2F85C114FF0063100EBC00202EBB6
:100FF000001203EB0212C2F858114FF0053100EB5A
:10100000C00202EB001203EB0212C2F854114FF0BF
:10101000043100EBC00202EB001203EB0212C2F833
:10102000501170471001002070000020C0F307230A
:101030000749C0B2194401F07043C1F3130143EAF8
:10104000411141EA800040F00070012202607047C7
:1010500000E60F40C0F307220849C0B2114401F076
:101060007042C1F3130142EA411141EA800040F0AD
:1010700000700068002818BF0120704700EA0F4088
:101080000020074908600AE00648FFF7BDFD064852
:10109000806880F0020004498860FFF7F3FEF3E700
:1010A00008000020900D00200040024000200B4965
:1010B000086012E00A48FFF7A7FD0A48006980F0BF
:1010C00004000849086108480078FFF79DFE0648BB
:1010D000007880F0010004490870EBE70C00002064
:1010E0009C0D0020004002402A0000200020024900
:1010F000086000BFFEE70000100000200020024949
:10110000086000BFFEE70000140000200020024934
:10111000086000BFFEE70000180000200020024920
:10112000086000BFFEE700001C000020002002490C
:10113000086000BFFEE700002000002010B501207D
:101140000249486202480068804710BD00D0044050
:101150006400002010B5012002494862024800687E
:10116000804710BD00E004406000002010B5012061
:101170000249486202480068804710BD00F0044000
:101180005C00002010B58CB0FFF7E6FCFFF752FDC5
:101190001948FFF7CFFCC8211848FFF709FC40F6B3
:1011A000B83116480C30FFF703FCFE201449154BEC
:1011B000CDE90830CDE90A101349144BCDE90430CC
:1011C000CDE906101249134BCDE900301423124A21
:1011D000CDE902100A211148FFF714FCFFF71EFEAB
:1011E000FFF722F94FF47A71B0FBF1F42046FFF7D4
:1011F000CBFC00200CB010BD680E0020900D00202C
:10120000990900002D1100001D1100000D110000B2
:10121000FD100000ED100000AD1000008110000076
:1012200070B50024002500BF28E004EB44001849F5
:1012300001EB80008068401E04EB4401144A02EB7D
:101240008101886004EB4400114601EB8000806856
:1012500090B904EB440102EB8100FFF7AFFC04EB13
:1012600044000B4901EB8000406804EB4401084A4C
:1012700002EB810188600125601CC4B2054800783A
:101280008442D2DB15B1FFF7B3FC002570BD00002E
:10129000900D002004000020002014E000EB8001ED
:1012A0000A4A02EB8101C96859B100EB800102EBE7
:1012B0008101C968491E00EB8002044B03EB8202E6
:1012C000D160411CC8B20828E8DB704770000020DC
:1012D0004FF04070E1EE100A70470000FC12000071
:1012E0000000002070000000A80200006C13000045
:1012F0007000002090100000C402000000000000F8
:1013000000000000000000000000000000000000DD
:1013100000000000000000000000000000000000CD
:1013200000000000000001000024F40000000000A4
:101330000000000000000000E0FF000080008000CE
:10134000000000000000000000000000000000009D
:10135000000000000000000000000000000000008D
:0C13600000000000000000000000000081
:04000005000003559F
:00000001FF
